{
  "abi": [
    {
      "inputs": [
        {
          "internalType": "uint256",
          "name": "a",
          "type": "uint256"
        },
        {
          "internalType": "uint256",
          "name": "b",
          "type": "uint256"
        }
      ],
      "name": "add",
      "outputs": [
        {
          "internalType": "uint256",
          "name": "",
          "type": "uint256"
        }
      ],
      "stateMutability": "pure",
      "type": "function"
    },
    {
      "inputs": [],
      "name": "decrement",
      "outputs": [],
      "stateMutability": "nonpayable",
      "type": "function"
    },
    {
      "inputs": [
        {
          "internalType": "uint256",
          "name": "a",
          "type": "uint256"
        },
        {
          "internalType": "uint256",
          "name": "b",
          "type": "uint256"
        }
      ],
      "name": "div",
      "outputs": [
        {
          "internalType": "uint256",
          "name": "",
          "type": "uint256"
        }
      ],
      "stateMutability": "pure",
      "type": "function"
    },
    {
      "inputs": [],
      "name": "increment",
      "outputs": [],
      "stateMutability": "nonpayable",
      "type": "function"
    },
    {
      "inputs": [
        {
          "internalType": "uint256",
          "name": "a",
          "type": "uint256"
        },
        {
          "internalType": "uint256",
          "name": "b",
          "type": "uint256"
        }
      ],
      "name": "mul",
      "outputs": [
        {
          "internalType": "uint256",
          "name": "",
          "type": "uint256"
        }
      ],
      "stateMutability": "pure",
      "type": "function"
    },
    {
      "inputs": [],
      "name": "number",
      "outputs": [
        {
          "internalType": "uint256",
          "name": "",
          "type": "uint256"
        }
      ],
      "stateMutability": "view",
      "type": "function"
    },
    {
      "inputs": [
        {
          "internalType": "uint256",
          "name": "a",
          "type": "uint256"
        },
        {
          "internalType": "uint256",
          "name": "b",
          "type": "uint256"
        }
      ],
      "name": "setAdd",
      "outputs": [],
      "stateMutability": "nonpayable",
      "type": "function"
    },
    {
      "inputs": [
        {
          "internalType": "uint256",
          "name": "newNumber",
          "type": "uint256"
        }
      ],
      "name": "setNumber",
      "outputs": [],
      "stateMutability": "nonpayable",
      "type": "function"
    },
    {
      "inputs": [
        {
          "internalType": "uint256",
          "name": "a",
          "type": "uint256"
        },
        {
          "internalType": "uint256",
          "name": "b",
          "type": "uint256"
        }
      ],
      "name": "sub",
      "outputs": [
        {
          "internalType": "uint256",
          "name": "",
          "type": "uint256"
        }
      ],
      "stateMutability": "pure",
      "type": "function"
    }
  ],
  "bytecode": {
    "object": "0x608060405234801561001057600080fd5b506102bc806100206000396000f3fe608060405234801561001057600080fd5b50600436106100935760003560e01c80638381f58a116100665780638381f58a146100ed578063a391c15b146100f6578063b67d77c514610109578063c8a4ac9c1461011c578063d09de08a1461012f57600080fd5b806304b45983146100985780632baeceb7146100ad5780633fb5c1cb146100b5578063771602f7146100c8575b600080fd5b6100ab6100a63660046101a6565b610137565b005b6100ab610148565b6100ab6100c33660046101c8565b600055565b6100db6100d63660046101a6565b61015e565b60405190815260200160405180910390f35b6100db60005481565b6100db6101043660046101a6565b610173565b6100db6101173660046101a6565b61017f565b6100db61012a3660046101a6565b61018b565b6100ab610197565b61014181836101f7565b6000555050565b6000805490806101578361020a565b9190505550565b600061016a82846101f7565b90505b92915050565b600061016a8284610221565b600061016a8284610243565b600061016a8284610256565b6000805490806101578361026d565b600080604083850312156101b957600080fd5b50508035926020909101359150565b6000602082840312156101da57600080fd5b5035919050565b634e487b7160e01b600052601160045260246000fd5b8082018082111561016d5761016d6101e1565b600081610219576102196101e1565b506000190190565b60008261023e57634e487b7160e01b600052601260045260246000fd5b500490565b8181038181111561016d5761016d6101e1565b808202811582820484141761016d5761016d6101e1565b60006001820161027f5761027f6101e1565b506001019056fea2646970667358221220f5cb86471e34471f626e75bf5b1a42e403ae0c6cd075acfa42ea115482767ffd64736f6c63430008110033",
    "linkReferences": {}
  },
  "methodIdentifiers": {
    "add(uint256,uint256)": "771602f7",
    "decrement()": "2baeceb7",
    "div(uint256,uint256)": "a391c15b",
    "increment()": "d09de08a",
    "mul(uint256,uint256)": "c8a4ac9c",
    "number()": "8381f58a",
    "setAdd(uint256,uint256)": "04b45983",
    "setNumber(uint256)": "3fb5c1cb",
    "sub(uint256,uint256)": "b67d77c5"
  },
  "id": 17
}